{
  "contractName": "arts",
  "abi": [
    {
      "constant": false,
      "inputs": [
        {
          "internalType": "string",
          "name": "artist",
          "type": "string"
        },
        {
          "internalType": "string",
          "name": "hashes",
          "type": "string"
        }
      ],
      "name": "addArt",
      "outputs": [],
      "payable": false,
      "stateMutability": "nonpayable",
      "type": "function"
    },
    {
      "constant": true,
      "inputs": [],
      "name": "viewArts",
      "outputs": [
        {
          "internalType": "string[]",
          "name": "",
          "type": "string[]"
        },
        {
          "internalType": "string[]",
          "name": "",
          "type": "string[]"
        }
      ],
      "payable": false,
      "stateMutability": "view",
      "type": "function"
    }
  ],
  "bytecode": "0x608060405234801561001057600080fd5b5061066f806100206000396000f3fe608060405234801561001057600080fd5b50600436106100365760003560e01c80637764c1261461003b578063c8552e1c14610057575b600080fd5b610055600480360361005091908101906103c6565b610076565b005b61005f6100f8565b60405161006d9291906104f4565b60405180910390f35b60008290806001815401808255809150509060018203906000526020600020016000909192909190915090805190602001906100b39291906102cd565b505060018190806001815401808255809150509060018203906000526020600020016000909192909190915090805190602001906100f29291906102cd565b50505050565b6060806000600181805480602002602001604051908101604052809291908181526020016000905b828210156101dc578382906000526020600020018054600181600116156101000203166002900480601f0160208091040260200160405190810160405280929190818152602001828054600181600116156101000203166002900480156101c85780601f1061019d576101008083540402835291602001916101c8565b820191906000526020600020905b8154815290600101906020018083116101ab57829003601f168201915b505050505081526020019060010190610120565b50505050915080805480602002602001604051908101604052809291908181526020016000905b828210156102bf578382906000526020600020018054600181600116156101000203166002900480601f0160208091040260200160405190810160405280929190818152602001828054600181600116156101000203166002900480156102ab5780601f10610280576101008083540402835291602001916102ab565b820191906000526020600020905b81548152906001019060200180831161028e57829003601f168201915b505050505081526020019060010190610203565b505050509050915091509091565b828054600181600116156101000203166002900490600052602060002090601f016020900481019282601f1061030e57805160ff191683800117855561033c565b8280016001018555821561033c579182015b8281111561033b578251825591602001919060010190610320565b5b509050610349919061034d565b5090565b61036f91905b8082111561036b576000816000905550600101610353565b5090565b90565b600082601f83011261038357600080fd5b813561039661039182610558565b61052b565b915080825260208301602083018583830111156103b257600080fd5b6103bd8382846105d9565b50505092915050565b600080604083850312156103d957600080fd5b600083013567ffffffffffffffff8111156103f357600080fd5b6103ff85828601610372565b925050602083013567ffffffffffffffff81111561041c57600080fd5b61042885828601610372565b9150509250929050565b600061043e83836104bb565b905092915050565b600061045182610594565b61045b81856105b7565b93508360208202850161046d85610584565b8060005b858110156104a9578484038952815161048a8582610432565b9450610495836105aa565b925060208a01995050600181019050610471565b50829750879550505050505092915050565b60006104c68261059f565b6104d081856105c8565b93506104e08185602086016105e8565b6104e98161061b565b840191505092915050565b6000604082019050818103600083015261050e8185610446565b905081810360208301526105228184610446565b90509392505050565b6000604051905081810181811067ffffffffffffffff8211171561054e57600080fd5b8060405250919050565b600067ffffffffffffffff82111561056f57600080fd5b601f19601f8301169050602081019050919050565b6000819050602082019050919050565b600081519050919050565b600081519050919050565b6000602082019050919050565b600082825260208201905092915050565b600082825260208201905092915050565b82818337600083830152505050565b60005b838110156106065780820151818401526020810190506105eb565b83811115610615576000848401525b50505050565b6000601f19601f830116905091905056fea365627a7a7231582000c456f9b93851b003a76d642fe5fbdc80593122503afe2d3a1266369f3d02936c6578706572696d656e74616cf564736f6c63430005100040",
  "source": "// SPDX-License-Identifier: MIT\npragma experimental ABIEncoderV2;\npragma solidity >=0.4.22 <0.9.0;\n\ncontract arts {\n  string[] _artists;\n  string[] _hashes;\n\n  function addArt(string memory artist, string memory hashes) public {\n    _artists.push(artist);\n    _hashes.push(hashes);\n  }\n  function viewArts() public view returns(string[] memory, string[] memory) {\n    return (_artists,_hashes);\n  }\n}\n",
  "sourcePath": "/Users/maddysravs/protect-fine-arts-by-blockchain/contracts/arts.sol",
  "compiler": {
    "name": "solc",
    "version": "0.5.16+commit.9c3226ce.Emscripten.clang"
  },
  "schemaVersion": "3.4.7",
  "updatedAt": "2022-06-28T13:45:48.021Z",
  "networkType": "ethereum",
  "devdoc": {
    "methods": {}
  },
  "userdoc": {
    "methods": {}
  }
}